:020000020000FC
:100000000C945E000C9428000C942F000C94390082
:10004C000C94920009B700E009BF05B500E005BDAE
:10005C00189500E00093600000936100009362002B
:10006C00009363001895009160001091610020913D
:10007C0062003091630003950A3009F010C000E073
:10008C0013951A3009F00BC010E023952A3009F0B3
:10009C0006C020E033953A3009F001C030E00093FF
:1000AC0060001093610020936200309363001895F8
:1000BC000FE50DBF04E00EBF0FEF04BB02E009BF5C
:1000CC0006E20CBF0DE003BFA0E6B0E084E09FEEBB
:1000DC0000E00093600000936100009362000093C5
:1000EC0063000CE403BD08E005BF00EC0BBF939A62
:1000FC00C09A7894B099FECF0E94A300B09900C02A
:10010C00B09BFECF0E94A30000C000270FE005BDEE
:10011C0009B700E809BFEECF4FB74F930D90492FA9
:10012C00407F040E05BA991F8A9521F4A0E6B0E031
:10013C0084E09FEE4F914FBF18954F935F9348E625
:10014C005FEF5A95F1F74A95D9F75F914F91089562
:00000001FF
