:020000020000FC
:1000000004E00EBF0FE50DBFBA9ABB9AC09AB09933
:10001000FECFB0E0A0E6B19904C0F2E0E2E0349196
:1000200003C0F2E0E0E0349144E65AE044E609B36C
:100030000D930E945B00B099EACF4A95C1F75A959B
:10004000A9F7E5CF0FEF0ABBBA9ABB9AC39AB0994A
:10005000FECF0E947B00B099FACFB09BFECF0E94EA
:100060007B0000C0C29833E00E944500B19902C0F5
:10007000C398E8CF0EE70BBB0E94450001E80BBB1D
:100080003A9509F4F3CFC29ADDCFF0E2E0E048EC14
:100090005AE048EC05910BBB0E9453004A95D1F7FA
:1000A0005A95B9F708954F9345E00E9463004A9529
:1000B000E1F74F910895031718F4C298C39A089571
:1000C000C398C29A08954F934AE00E947B004A95D4
:1000D000E1F74F9108954F934AE00E9463004A95DB
:1000E000E1F74F9108954F9345E00E946B004A95C8
:1000F000E1F74F9108954F935F9348E65FEF5A956C
:0C010000F1F74A95D9F75F914F910895EF
:040200008000010079
:00000001FF
