:020000020000FC
:0C0000000C9479000C9428000C9438003B
:100048000C9458000C941201829B07C00FEF009388
:10005800000101E000936000189500E000930001A2
:1000680002E0009360001895009100010F3F81F0B5
:10007800009102010395023318F40093020103C0B2
:1000880002E3009302010E94D4000E94AC0018957C
:10009800009101010395023318F400930101F3CF95
:1000A80002E300930101EFCF009100010F3F89F0B7
:1000B80000910201013020F00A950093020104C06A
:1000C80000E00093020100C00E94D4000E94AC002E
:1000D800189500910101013020F00A950093010163
:1000E800F3CF00E000930101EFCF0FE50DBF04E06F
:1000F8000EBF0FEF04BB02E009BF04E30CBF0DE025
:1001080003BFA0E6B0E083E09FEE00E0009360004C
:1001180000936100009362000093630009E005BF4B
:1001280000EE0BBF929A939AC29A01E007BD06E8C7
:1001380006BD02EA0FBD0DE10EBD8D9A8C9A78942A
:100148000027009300010093010100930201FFCFF3
:10015800009100010F3F49F0009102010E94C20086
:1001680020936100109362000895009101010E949C
:10017800C20020936100109362000895222711277E
:10018800003061F00F9313950A9509F407C0139591
:100198001A3009F0F9CF11272395F6CF0F9108955A
:1001A800009100010F3F81F060910201772751E033
:1001B80046E80E940B01112F002F30E022E30E9435
:1001C800F80019BD08BD089560910101772751E035
:1001D80046E80E940B01112F002F30E022E30E9415
:1001E800F8001BBD0ABD0895EE24FF1841E1001F69
:1001F800111F4A9509F40895EE1CFF1CE21AF30A30
:1002080020F4E20EF31E8894F2CF0894F0CF649F96
:100218008001749F100D569F100D08954FB74F938E
:100228000D90492F407F040E05BA991F8A9521F435
:0E023800A0E6B0E084E09FEE4F914FBF189516
:00000001FF
