:020000020000FC
:080000000C9434000C9428005C
:040018000C942A001A
:10004C000C949F003FEF189509B309930E9464002C
:10005C002A9519F4D1E0C0E022E318950FE50DBF05
:10006C0004E00EBF0FEF04BB07BB02E009BF06E2C2
:10007C000CBF0DE003BFA0E6B0E084E09EEF00E40F
:10008C000093600000936100009362000093630092
:10009C0002E005BF00E40BBF0EE10BBD14E80ABD86
:1000AC0078943F3FF1F7332700270DE00EBD09B7D9
:1000BC0000E109BFD1E0C0E022E3F3CF2F93F8E0D9
:1000CC00E0E0E65F0591009360000591009361000C
:1000DC00F8E0E0E009B3E00F0491009363000E94A4
:1000EC0079002F910895F6E0E0E0059115912591A6
:1000FC0056B35770503029F0513031F02093000135
:10010C0006C00093000103C01093000100C00091D1
:10011C00000110916300101709F00895F8E0E0E079
:10012C00E45F059100936000059100936100C79A0C
:10013C00F4CF4FB74F930D9005BA48B34F60492396
:10014C0048BB0894991F8A9521F4A0E6B0E084E09E
:08015C009EEF4F914FBF189573
:00000001FF
