:020000020000FC
:040000000C943E001E
:04000C000C94280028
:10004C000C9495004FB74F930F93009101010A95B3
:10005C000093010149F40AE0009301010E948F0012
:10006C00172F062F0E94A6000F914F914FBF189586
:10007C000FE50DBF04E00EBF0FEF04BB02E009BF9C
:10008C0006E20CBF0DE003BFA0E6B0E084E09FEEFB
:10009C0000E0009360000093610000936200009305
:1000AC006300789400E007B907E806B9369A0EE4C5
:1000BC0003BD0FE005BD09B7006809BF0AE0009356
:1000CC00010100EF07BB0FE008BB06B30F70003057
:1000DC00C9F0013081F0023039F003E007B9C79A5A
:1000EC00C698C598C498F1CF02E007B9C798C69ACC
:1000FC00C598C498EACF01E007B9C798C698C59AC5
:10010C00C498E3CF00E007B9C798C698C598C49ABD
:10011C00DCCF349BFECF349A15B104B108954FB7A0
:10012C004F930D90492F407F040E05BA991F8A9565
:10013C0021F4A0E6B0E084E09FEE4F914FBF1895FC
:10014C00002700936000009361000093620000930D
:10015C006300603019F4703009F4089510E0C3E6C0
:10016C00D0E04881439548834A3021F41883CA95DE
:0E017C00CF35B9F76A956F3F61F77A95EACFF4
:00000001FF
