:020000020000FC
:1000000004E00EBF0FE50DBFC09AB099FECF0E946D
:100010008900B09900C0B09BFECF0E94890000C04B
:10002000B1E0A0E045E052E05AE009B30D935A95E3
:10003000E1F74A95C9F7BA9A8B9AC29AB1990E9488
:100040006500B199FBCFC298FFCFBB9ABC9AC39A07
:10005000B099FECF0E948900B09900C0B09BFECF3E
:100060000E94890000C0B1E0A0E03AEF0E947C004D
:1000700009B30D933A95D1F7BA9AC29AB199FECFC6
:100080000E948900B19900C0B19BFECF0E948900F7
:1000900000C0B1E0A0E03AEF10E0F4E0E0E024912D
:1000A0000D91021718F43A95D9F703C013953A95B4
:1000B000B9F7131728F4C49A0E947C00C498C5CFDE
:1000C000C3980E948900C39AC0CFC3980E946C0055
:1000D000C39A0E94740008954F9344E10E948900DE
:1000E0004A95E1F74F9108954F934EE10E948900A0
:1000F0004A95E1F74F9108950E9481000E94810086
:1001000008954F9345E00E946C004A95E1F74F91A6
:1001100008954F935F9348E65FEF5A95F1F74A953C
:08012000D9F75F914F9108959A
:0204000080007A
:00000001FF
