:020000020000FC
:1000000004E00EBF0FE50DBF0DC0BB9A0DE40CBFA1
:1000100000270DE103BFFFCF0DEC0CBF00270AE660
:1000200003BFFFCF8D9A0EE41FE107BD16BD0EE39F
:100030001FE70BBD1ABD02E80FBD0AE10EBDF8E0D7
:10004000E0E014910E94370009B3011728F407E19A
:100050000BBD0FE60ABDF6CF29F00EE30BBD0FE78F
:100060000ABDF0CF07E20BBD0FE00ABDEBCF0CE9F4
:1000700003BD00270FE005BD08B707FFFDCF002730
:0800800005BD00E808BF08956A
:020800008081F5
:00000001FF
