:020000020000FC
:1000000004E00EBF0FE50DBFB3E0A0E014E609B3B6
:100010000D930E9467001A95D1F7F4E0E0E014E632
:100020000FEF04BB059105BB0E945F001A95D1F745
:10003000B1E0A0E0BF9AB89A3FE00D910078003897
:1000400011F0639501C073953A95B9F7671728F4D5
:10005000C79A0E945F00C79804C0C09A0E945F00C0
:10006000C09800E004BB03B3F6E0E0E01491011790
:1000700031F0A19AA99A0E945F00A99805C0A09AA0
:10008000A8980E946F00A89AB89AB99AC19AB29B90
:100090000E944D000E945600FACF0FEF04BB0EE401
:1000A00005BBC09A0E945F00C09808950FEF04BB83
:1000B00009E505BBC1980E946F00C19A08954F934E
:1000C00045E00E9467004A95E1F74F9108954F93EC
:1000D00044E10E946F004A95E1F74F9108954F93D4
:1000E0005F9348E65FEF5A95F1F74A95D9F75F912C
:0400F0004F9108958F
:00000001FF
