:020000020000FC
:1000000004E00EBF0FE50DBFB89AC19AB19901C0C7
:1000100007C0C09A0E942300C0980E943700F6CF04
:10002000C09A0E942F00C0980E943F00EFCF01EBC2
:1000300002BF05E003BF08B700FFFDCF002703BFE5
:1000400001E008BF089503E602BF05E003BF08B75B
:1000500000FFFDCF002703BF01E008BF08954F93C5
:1000600043E00E943F004A95E1F74F9108954F9376
:1000700044E00E943F004A95E1F74F9108950DE456
:100080000CBF0DE003BF08B701FFFDCF002703BF82
:1000900002E008BF08950AE90CBF0DE003BF08B7EE
:0E00A00001FFFDCF002703BF02E008BF089557
:00000001FF
